:020000040800F2
:1000000018C7002021020008D5330008D7330008A4
:10001000093400080D340008113400080000000005
:10002000000000000000000000000000153400087F
:1000300017340008000000002BC203081B3400081E
:100040003B0200083B0200083B020008556D030814
:100050003B0200083B0200083B0200083B0200088C
:100060003B0200083B0200083B0200083B0200087C
:100070003B0200083B0200083B0200083B0200086C
:100080003B0200083B020008E98603083B02000827
:100090003B0200083B0200083B0200082B3400082A
:1000A0003B0200083B0200083B0200083B0200083C
:1000B0001B6E030893850308835A04083B0200085B
:1000C0003B0200083B0200083B0200083B0200081C
:1000D0003B0200086B590408193500083B02000870
:1000E0007B3400083B0200083B0200083B0200088A
:1000F0003B0200083B0200083B0200083B020008EC
:100100003B0200083B0200082F8C03083B0200085A
:100110003B020008A7670408776904083B0200084F
:100120003B0200083B0200083B0200083B020008BB
:1001300000F002F800F064F80AA090E8000C824495
:100140008344AAF10107DA4501D100F059F8AFF272
:10015000090EBAE80F0013F0010F18BFFB1A43F0A5
:1001600001031847400E0600600E06000A444FF0D7
:10017000000C10F8013B13F0070408BF10F8014B06
:100180001D1108BF10F8015B641E05D010F8016B4B
:10019000641E01F8016BF9D113F0080F1EBF10F8AF
:1001A000014BAD1C0C1B09D16D1E58BF01F801CBD2
:1001B000FAD505E014F8016B01F8016B6D1EF9D555
:1001C0009142D6D37047000000230024002500266A
:1001D000103A28BF78C1FBD8520728BF30C148BFAA
:1001E0000B60704764290AF053A473290BF0A5A093
:1001F000002070471FB54DF0CEFF1FBD10B510BDDC
:100200004BF0FAF81146FFF7F5FF03F0A3F84BF0B7
:1002100018F903B4FFF7F2FF03BC4BF019F9000023
:100220000948804709480047FEE7FEE7FEE7FEE78A
:10023000FEE7FEE7FEE7FEE7FEE7FEE704480549C6
:10024000034A054B704700002503000831010008F0
:1002500018C3002018C7002018C300200021002068
:10026000674A126842F48032654B1A6000BF644AE4
:10027000126802F40030491C10B9B1F5A06FF6D134
:100280005F4A126812F4003F01D0012000E0002014
:10029000012842D15B4A126842F01002594B1A60A1
:1002A0001A46126822F003021A601A46126842F0D7
:1002B00002021A60524A5268514B5A601A465268FA
:1002C0005A601A46526842F480625A601A4652686E
:1002D00022F47C125A601A46526842F4E8125A60BC
:1002E0001A46126842F080721A6000BF444A1268CF
:1002F00012F0007FFAD0424A526822F00302404BCB
:100300005A601A46526842F002025A6000BF3C4AE4
:10031000526802F00C02082AF9D1704710B5FFF7B5
:100320009DFF10BD10B53648006840F0010034490B
:10033000086008464068344908403149486008462A
:100340000068324908402E4908600846006820F4D9
:10035000802008600846406820F4FE0048604FF4A2
:100360001F008860FFF7DAFF4FF00060284908603F
:1003700010BD10B5002100200022214B5B6803F066
:100380000C0121B1042906D0082928D107E0214B0E
:10039000214C236027E01F4B1F4C236023E0184BA8
:1003A0005B6803F47010164B5B6803F48032022321
:1003B00003EB904022B9194B4343174C23600DE0E7
:1003C0000F4B5B6813F4003F04D0144B4343124CB3
:1003D000236003E00F4B43430F4C236003E00D4BBE
:1003E0000D4C236000BF00BF054B5B68C3F30313D4
:1003F0000B4CE15C084B1B68CB40074C236010BDE5
:1004000000100240002002400000FFF8FFFFF6FE4F
:1004100008ED00E000127A000000002000093D0015
:100420000400002031490143314A1160704770B522
:10043000002100230F22C4780CB32D4C246804F44F
:10044000E064C4F5E064210AC1F10403CA404478C1
:1004500004FA03F18478144021430901254C0678FD
:10046000A155047804F01F050124AC4005786D11F6
:100470004FF0E02606EB8505C5F8004109E0047859
:1004800004F01F050124AC401B4D0678761145F899
:10049000264070BD194A0A400243154B1B1F1A60C3
:1004A000704739B1124A121D12680243104B1B1DCE
:1004B0001A6006E00E4A121D126882430C4B1B1D87
:1004C0001A607047042808D14FF0E021096941F013
:1004D00004014FF0E022116107E04FF0E0210969CB
:1004E00021F004014FF0E022116170470000FA058D
:1004F0000CED00E000E400E080E100E080FFFF1F81
:1005000010B50446F948844208D10121401501F094
:100510004DFD0021601501F049FD17E0F4488442CB
:1005200008D10121001501F041FD0021201501F045
:100530003DFD0BE0EF48844208D10121C80301F0E2
:1005400035FD00214FF4004001F030FD10BD30B505
:100550000246002000235068E74C20400D790C68CB
:1005600044EA0524204350609068E44C2040D1E9DF
:1005700002542C434D7944EA450420439060D06AEC
:1005800020F470000C7C641EE4B2234340EA035064
:10059000D06230BD00210160017141718160C16094
:1005A00001210174704721B1826842F0010282602A
:1005B00003E0826822F001028260704721B1826804
:1005C00042F48072826003E0826822F4807282606A
:1005D000704710B50023CBB21AB144681C43446085
:1005E00002E044689C43446010BD816841F008010A
:1005F00081607047014600208A6812F0080F01D020
:10060000012000E000207047816841F00401816012
:100610007047014600208A6812F0040F01D00120C3
:1006200000E00020704721B1826842F4A00282609D
:1006300003E0826822F4A002826070470146002035
:100640008A6812F4800F01D0012000E0002070477A
:1006500010B50A4600210023416821F46041531E71
:1006600041EA4331416010BD21B1426842F4006269
:10067000426003E0426822F4006242607047F0B5D5
:1006800004460D4600200021092D11DDE068A5F18A
:100690000A0606EB4607072606FA07F18843A5F186
:1006A0000A0606EB460603FA06F10843E0600CE092
:1006B000206905EB4507072606FA07F1884305EB95
:1006C000450603FA06F108432061072A0FDA606B3A
:1006D000561E06EB86071F2606FA07F18843561EAC
:1006E00006EB860605FA06F10843606322E00D2A50
:1006F0000FDA206BD61F06EB86071F2606FA07F1D6
:100700008843D61F06EB860605FA06F108432063E8
:1007100010E0E06AA2F10D0606EB86071F2606FA36
:1007200007F18843A2F10D0606EB860605FA06F1ED
:100730000843E062F0BD21B1826842F48012826019
:1007400003E0826822F48012826070470146C86C20
:1007500080B2704765484C300068704721B14268EC
:1007600042F48062426003E0426822F480624260A8
:10077000704721B1426842F48052426003E042680F
:1007800022F48052426070470A460021816821F4B9
:10079000E04111438160704721B1826842F4004218
:1007A000826003E0826822F400428260704721B1D7
:1007B000826842F40212826003E0826822F402122C
:1007C00082607047014600208A6812F4001F01D041
:1007D000012000E000207047F0B5044615460020D7
:1007E00000220026092911DDE068A1F10A0707EBC4
:1007F000470C072707FA0CF29043A1F10A0707EB11
:10080000470703FA07F21043E0600CE0206901EBB0
:10081000410C072707FA0CF2904301EB410703FA5A
:1008200007F210432061A06BC0F30156EF1C06F1E4
:10083000010CA7EB0C0707EB870C1F2707FA0CF23C
:100840009043EF1C06F1010CA7EB0C0707EB8707A1
:1008500001FA07F21043A063F0BD10B50A4600216B
:100860000023816B21F44011531E41EA035181633F
:1008700010BD10B5002303460B441A6010BD02469C
:100880000023134601F128000344186880B2704722
:100890000A46002141681A4B1940114341607047D4
:1008A0004162826270470A460021416821F01F01BF
:1008B00011434160704740B10C490831096841F467
:1008C00000010A4A0832116007E008490831096846
:1008D00021F40001054A08321160704702460020E9
:1008E00013680B420ED001200DE0000000240140EF
:1008F00000280140003C0140FFFEF0FFFDF7F1FF42
:10090000FFFD3FFF00207047CA430260704770B58B
:1009100002460020002300240B125568CEB205EADF
:10092000060415681D4202D00CB1012000E0002031
:1009300070BD00220A12D3430360704710B5012036
:1009400001F04EFB002001F04BFB10BD2449086074
:1009500070472349091F08607047214984310860A6
:100960007047014600201F4A10884FF67F42104012
:1009700008431C4A1080704701460020194A10881D
:100980004FF6807210400843164A108070470022CC
:10099000144A2C3A02441160704701460022114A61
:1009A0002C3A0A44108870470D489C300068C0B249
:1009B00070470C480830008840F0010009490831B0
:1009C000088070470648A0300068C0B270470548EC
:1009D0000830008840F00200024908310880704762
:1009E00004860D422C6C004001201049886070473D
:1009F00001460E4801600068704710B502460B467C
:100A0000002100BF04E052F82100084C2060491C7E
:100A10009942F8D30548006810BD04480068704743
:100A20000249087170470148007970470030024060
:100A300010B50121480701F0C6FA00214FF000501F
:100A400001F0C1FA10BD30B500220023514C2268DC
:100A500040F6FE748440A243D1E900452C438D68E2
:100A60002C43CD6844EA050303FA00F42243494CC1
:100A7000226030BD0021016041608160C16070472B
:100A800039B1444A1268012383401A43414B1A602A
:100A900006E0404A1268012383409A433D4B1A60A6
:100AA000704741B13B4A12684FF4805383401A4368
:100AB000384B1A6007E0374A12684FF4805383407E
:100AC0009A43344B1A60704710B551B1314A121D28
:100AD000126804090123A3401A432E4B1B1D1A6000
:100AE00009E02C4A121D126804090123A3409A430D
:100AF000284B1B1D1A6010BD40B12649091D09680D
:100B000041F00301234A121D116007E02149091D2C
:100B1000096821F003011F4A121D1160704710B5CA
:100B20003AB11C4B1B6801FA00F42343194C2360B3
:100B300006E0184B1B6801FA00F4A343154C236030
:100B400010BD0022134A00F108031A4411607047D7
:100B50000022104A00F114031A441160704730B5A6
:100B600000240023082802D142EA012401E042EADD
:100B70000144084B00F120052B441C6030BD0146A8
:100B80000022044A2C2000EB91000244106880B23D
:100B90007047000000740040002044490860091DAF
:100BA0000860091D0860091D086041483F4914316B
:100BB0000860704700213D498279002A3AD00A46F0
:100BC000126803689A430B461A600A1D126803688C
:100BD0009A430B1D1A60027911440A6803681A438C
:100BE0000A60324A0832126803689A432F4B08336E
:100BF0001A601A1D126803689A432C4B0C331A6052
:100C00004279102A0ED11A1F126803681A43274B23
:100C100008331A601A1D126803681A43234B0C33F9
:100C20001A600DE02149427911440A6803681A43A9
:100C30000A6005E0027911440A6803689A430A6071
:100C400070470021016001710C2141710021817107
:100C500070471649103109680143144A1032116077
:100C6000704701460020114A143212680A4201D02E
:100C7000012000E0002070470C49143108607047E3
:100C8000014600200022094B1B6803EA0102074BC2
:100C900014331B680B4202D00AB1012000E000208F
:100CA0007047024914310860704700000004014099
:100CB000FFFF0F0001460020FE4A106800F03800D8
:100CC000084310607047FB49096821F00801F94AA0
:100CD000116011460968014311607047F5490968C0
:100CE00021F01001F34A11601146096801431160B7
:100CF0007047F148EF494860F04848607047EE4857
:100D0000EC494860ED4848607047EA48006940F0A7
:100D10008000E84908617047E648006940F08000BB
:100D2000E449086170470420E249C96801F0010103
:100D3000012901D101200EE0DE49C96811F0040F3C
:100D400001D0022007E0DB49C96811F0100F01D083
:100D5000032000E00420704700B502460423FFF79B
:100D6000E2FF034603E0FFF7DEFF0346521E012BBE
:100D700001D1002AF7D102B90523184600BD30B5CC
:100D8000044604254FF43020FFF7E6FF0546042D06
:100D900017D1C848006940F00200C64908610846FA
:100DA0004461006940F0400008614FF43020FFF7D3
:100DB000D3FF0546BF48006941F6FD710840BD49B3
:100DC0000861284630BD10B504244FF43020FFF7E9
:100DD000C3FF0446042C16D1B648006940F0040055
:100DE000B44908610846006940F0400008614FF4CA
:100DF0003020FFF7B1FF0446AE48006941F6FB71B1
:100E00000840AC490861204610BD00B502460423E5
:100E1000FFF789FF034603E0FFF785FF0346521EF5
:100E2000012B01D1002AF7D102B90523184600BDD4
:100E300010B504244FF43020FFF7E7FF0446042CDC
:100E400016D19C48006940F004009A4908610846A0
:100E5000006940F0400008614FF43020FFF7D5FFF3
:100E600004469448006941F6FB71084091490861C5
:100E7000204610BD00208F49C96911F0020F01D032
:100E8000012000E00020704730B5A5250424FFF7BD
:100E9000F1FF00B100254FF43020FFF75DFF04465D
:100EA000042C3AD184488349886084488860084685
:100EB000006940F0200008610846006940F04000E9
:100EC00008614FF43020FFF747FF0446042C1BD184
:100ED0007848006941F6DF710840764908610846A4
:100EE000006940F01000086175480580E002FFF7D6
:100EF00033FF0446052C10D06E48006941F6EF71AF
:100F000008406C49086108E0052C06D06948006972
:100F100041F6EF71084067490861204630BDF0B5E1
:100F200004460D4604260027F002FFF715FF06468B
:100F3000042E22D15F48006940F001005D4908613C
:100F40002580F002FFF708FF0646042E0ED1A71CED
:100F5000280C3880F002FFF7FFFE0646554800696E
:100F600041F6FE7108405349086106E051480069A6
:100F700041F6FE7108404F4908613046F0BD70B53A
:100F800004460D460426F002FFF7E6FE0646042E50
:100F900011D14848006940F00100464908612580A8
:100FA000F002FFF7D9FE06464248006941F6FE719D
:100FB000084040490861304670BD70B505460E4690
:100FC0000424E002FFF7C8FE0446042C17D13A4877
:100FD00038498860394888600846006940F0100048
:100FE00008612E80E002FFF7B7FE0446052C06D00C
:100FF0003048006941F6EF7108402E4908612046EB
:1010000070BD2DE9F04304464FF6FF763746B046F3
:10101000B1460425E443E6B2C4F30727C4F3074806
:101020004FEA1469E802FFF797FE0546042D40D108
:10103000214820498860214888600846006940F0BE
:1010400010000861FF2E06D01D4808300680E80217
:10105000FFF782FE0546042D08D1FF2F06D0184861
:101060000A300780E802FFF777FE0546042D0AD113
:10107000B8F1FF0F07D012480C30A0F80080E8024A
:10108000FFF76AFE0546042D0AD1B9F1FF0F07D01C
:101090000B480E30A0F80090E802FFF75DFE054611
:1010A000052D06D00348006941F6EF71084001495B
:1010B000086107E00020024023016745AB89EFCDBE
:1010C00000F8FF1F2846BDE8F08330B5054604242C
:1010D0004FF43020FFF740FE0446042C41D15F4816
:1010E0005F4988605F4888600846006940F02000DA
:1010F00008610846006940F0400008614FF4302064
:10110000FFF72AFE0446042C22D15548006941F617
:10111000DF710840524908610846006940F010003C
:1011200008611DB100205049088002E0A5204E4909
:1011300008804FF43020FFF70FFE0446052C10D036
:101140004748006941F6EF7108404549086108E0E9
:10115000052C06D04248006941F6DF71084040493D
:101160000861204630BDF0B505460E4617460424FA
:101170003A483B4988603B488860E002FFF7ECFD55
:101180000446042C19D13648006940F01000344957
:10119000086147F0F800304328433349891C088030
:1011A000E002FFF7D9FD0446052C06D02C48006963
:1011B00041F6EF7108402A4908612046F0BD2848F1
:1011C000C069800870472648006A7047002024499B
:1011D000096811F0200F01D0012000E000207047C5
:1011E00029B11F4A126902431D4B1A6104E01C4ACF
:1011F000126982431A4B1A61704701460020012987
:1012000008D1174AD26912F0010F01D0012008E07D
:10121000002006E0124AD2680A4201D0012000E014
:10122000002070470E49C860704704200C49C96807
:1012300001F00101012901D101200EE00849C9682E
:1012400011F0040F01D0022007E00549C96811F030
:10125000100F01D0032000E00420704723016745F0
:1012600000200240AB89EFCD00F8FF1F30B943F2F8
:10127000DB014FF0204242F8201005E043F2D2019A
:101280004FF0204242F820106FF07042411C4FF0A6
:10129000204343F8212011461A4602EB8002C2F88F
:1012A0000411704710280AD118214FF0204211660E
:1012B000402151664FF0FC319166D16610E0182153
:1012C000F84A11604FF040014FF02042C2F88410FC
:1012D0004FF0FC31F44A11604FF02042C2F88C10FC
:1012E00070471820F14908604FF000004FF020418E
:1012F000C1F8A4004FF0FC30ED49086001F1040191
:10130000086001F1040108607047D0E9011211433F
:10131000C268114302691143426911438269114352
:10132000C2691143026A1143426A1143826A11433E
:10133000C26A1143026B11434FF02043026843F825
:1013400022108168082908D11A46016852F8211034
:1013500041F04001026843F82210416B0968426B7A
:10136000526841EA0211426B926841EA0221426BE3
:10137000D26841EA0241426B126941EA0251426B72
:10138000526941EA0261426B926911430268521C40
:101390004FF0204343F82210C16AB1F5804F1AD1B3
:1013A000816B0968826B526841EA0211826B926814
:1013B00041EA0221826B126941EA0251826B526951
:1013C00041EA0261826B92691143026803EB820277
:1013D000C2F8041108E06FF070414FF0204302683A
:1013E00003EB8202C2F80411704730B500210022DD
:1013F0000023446844F0080485682C43C5682C43E6
:1014000005692C43456944EA4524856944EA453128
:10141000C4692468C5696D6844EA0524C569AD6876
:1014200044EA0544C569ED6844EA0562046A246833
:10143000056A6D6844EA0524056AAD6844EA054416
:10144000056AED6844EA05630468102C05D14FF085
:1014500020442166A266E36607E0924C21604FF0CB
:101460002044C4F88820934C236030BD016841F0CB
:101470001001426841EA4221826841EA42318B4AC6
:101480001160C1680968C268526841EA0221C268F5
:10149000926841EA0241C268D26841EA0261844A24
:1014A0001160016909680269526841EA0221026912
:1014B000926841EA02410269D26841EA02617E4AC9
:1014C0001160416909684269526841EA0221426932
:1014D000926841EA02414269D26841EA02614FF0F2
:1014E0002042C2F8B0107047002101600221416023
:1014F00000218160C160016141618161C16101625E
:101500004FF480514162490081620021C162016350
:101510000F21426B1160426B5160FF21426B916061
:101520000F21426BD160426B1161426B516100210E
:10153000426B91610F21826B1160826B5160FF21C0
:10154000826B91600F21826BD160826B1161826B23
:1015500051610021826B916170471021016000216F
:1015600041608160C160016141618161FC21C269AA
:101570001160C2695160C2699160C269D160026A3A
:101580001160026A5160026A9160026AD16070471C
:101590000021016041608160FC21C2681160C26865
:1015A0005160C2689160C268D160026911600269CD
:1015B0005160026991600269D160426911604269BB
:1015C0005160426991604269D160704751B14FF0FA
:1015D000204252F8202042F001024FF0204343F80D
:1015E000202009E04FF0204252F82020334B1A40CF
:1015F0004FF0204343F82020704799B1102808D1BC
:101600004FF02042126E42F004024FF020431A665F
:101610001DE0244A126842F004024FF02043C3F850
:10162000802014E0102809D14FF02042126E234B85
:10163000DB1E1A404FF020431A6608E0194A126870
:101640001F4B02EA03024FF02043C3F8802070478B
:1016500040B11649096841F004014FF02042C2F838
:10166000A01008E011490968154A01EA02014FF08B
:101670002042C2F8A010704799B1102808D14FF04D
:101680002042126E42F040024FF020431A662DE0D5
:10169000044A126842F040024FF02043C3F8802011
:1016A00024E00FE0800000A0880000A0A00000A0BF
:1016B000A80000A08C0000A0AC0000A0FEFF0F005E
:1016C000FBFF0F00102808D14FF02042126E684B2C
:1016D0001A404FF020431A6608E0664A1268644BCD
:1016E00002EA03024FF02043C3F88020704701460E
:1016F0000020102903D14FF02042506F01E05E4AD4
:101700001068704710B5F2B1102807D14FF0204390
:101710005B6E0B434FF02044636632E0B0F5807F90
:1017200008D1564B1B6843EA01034FF02044C4F82C
:10173000843026E0524B1B6843EA01034FF02044FB
:10174000C4F8A4301DE0102807D14FF020435B6E91
:101750008B434FF02044636613E0B0F5807F08D1DF
:10176000464B1B6823EA01034FF02044C4F8843041
:1017700007E0434B1B6823EA01034FF02044C4F801
:10178000A43010BD10B5024600200023102A03D15A
:101790004FF02044636E07E0B2F5807F02D1374CF2
:1017A000236801E0364C23680B4201D0012000E0A1
:1017B000002010BD102807D14FF02042526E8A43FE
:1017C0004FF020435A6613E0B0F5807F08D12B4AD2
:1017D000126822EA01024FF02043C3F8842007E098
:1017E000274A126822EA01024FF02043C3F8A420DE
:1017F000704770B502460020002300240025102AFF
:1018000003D14FF02046736E07E0B2F5807F02D11E
:101810001A4E336801E01A4E336803EA010403EA02
:10182000D10514B10DB1012000E0002070BD1028D9
:1018300008D14FF02042526E22EAD1024FF02043ED
:101840005A6613E0B0F5807F08D10C4A126822EA8C
:10185000D1024FF02043C3F8842007E0084A126801
:1018600022EAD1024FF02043C3F8A42070470000C1
:10187000BFFF0F00800000A0940000A0840000A023
:10188000A40000A010B50446CA48844208D1012132
:10189000042000F08BFB0021042000F087FB46E0D1
:1018A000C548844208D10121082000F07FFB0021B7
:1018B000082000F07BFB3AE0C048844208D10121B7
:1018C000102000F073FB0021102000F06FFB2EE0D1
:1018D000BB48844208D10121202000F067FB002191
:1018E000202000F063FB22E0B648844208D10121A9
:1018F000402000F05BFB0021402000F057FB16E089
:10190000B148844208D10121802000F04FFB002122
:10191000802000F04BFB0AE0AC48844207D1012153
:10192000801500F043FB0021A01500F03FFB10BD27
:1019300010B50121084600F039FB0021012000F01C
:1019400035FB10BD2DE9F0410246002500260020A0
:1019500000230024002791F803C00CF00F0591F834
:1019600003C01CF0100F03D091F802C04CEA05052B
:10197000B1F800C01CF0FF0F31D0146800202BE03C
:101980004FF0010C0CFA00F3B1F800C00CEA0306AA
:101990009E4220D183004FF00F0C0CFA03F7BC439A
:1019A00005FA03FC4CEA040491F803C0BCF1280FCB
:1019B00006D14FF0010C0CFA00FCC2F814C00AE08A
:1019C00091F803C0BCF1480F05D14FF0010C0CFA9F
:1019D00000FCC2F810C0401C0828D1D31460B1F834
:1019E00000C0BCF1FF0F34DD546800202EE000F190
:1019F000080C4FF0010808FA0CF3B1F800C00CEA2B
:101A000003069E4221D183004FF00F0C0CFA03F71E
:101A1000BC4305FA03FC4CEA040491F803C0BCF192
:101A2000280F05D100F1080C08FA0CF8C2F8148050
:101A300091F803C0BCF1480F07D100F1080C4FF03A
:101A4000010808FA0CF8C2F81080401C0828CED310
:101A50005460BDE8F0814FF6FF7101800221817072
:101A60000421C17070470246002093680B4201D0E8
:101A7000012000E0002070470146886880B270476E
:101A800002460020D3680B4201D0012000E0002074
:101A900070470146C86880B2704701617047416174
:101AA00070470AB1016100E041617047C160704751
:101AB0004FF480320A438261816182618269826966
:101AC000704702460020424B18684FF6807318405A
:101AD00040EA021008433E4B186070473D49C86118
:101AE0007047F0B50A46002300240021002500F0CD
:101AF0000046B6F1004F02D1354EF16901E0344E97
:101B00007168C0F3034583B200F44016B6F5401F78
:101B100008D121F070612E4E766826F070662C4F49
:101B20007E6012E000F48016B6F5801F06D1032611
:101B300006FA05F4A14341F0706106E0460D360156
:101B400003FA06F6B14341F0706122B1460D360149
:101B500003FA06F6314300F00046B6F1004F02D119
:101B60001B4EF16101E01A4E7160F0BD30B50022EC
:101B70008B071C0F0F2303FA04F2154B08338C104C
:101B800053F824309343124C08348D1044F8253018
:101B900023468C1053F824308C07240F00FA04F4E9
:101BA00023430B4C08348D1044F8253030BD0A49CE
:101BB0000860704700080140000C0140001001401F
:101BC0000014014000180140001C014000200140A9
:101BD0000000014000002042DC00204210B501213D
:101BE000080700F0F0F900214FF0805000F0EBF909
:101BF00010BD2949086270472749086170470146AE
:101C00000020264A106820F0E0000843106070476A
:101C100023490860704710B5024600201F4B186822
:101C200020F00300104318601E4B1B6843F00403B0
:101C30001C4C2360012901D130BF00E020BF194BAB
:101C40001B6823F00403174C236010BD1348006881
:101C500040F00400114908600846006840F00200A6
:101C600008601048006840F004000E49086000BF9A
:101C700000BF30BF704701460020084A52680A4240
:101C800001D0012000E0002070470449096841EAC2
:101C90008001024A1160704700000E42007000404F
:101CA000A0000E4210ED00E0DC48006840F00100AA
:101CB000DA49086008464068D9490840D749486071
:101CC00008460068D7490840D449086008460068BB
:101CD00020F4802008600846406820F4FE00486038
:101CE0004FF41F0088607047CC49096821F48031A7
:101CF000CA4A11601146096821F480211160B0F5CB
:101D0000803F03D0B0F5802F0ED106E0C3490968AB
:101D100041F48031C14A116007E0C049096841F4CB
:101D2000A021BE4A116000E000BF00BF704710B59F
:101D300001460022002300204A11012A02D1B74C9B
:101D4000236806E0022A02D1B44C236A01E0B34CB6
:101D5000636A01F01F02012494401C4201D001205B
:101D600000E0002010BD70B500240025002600BF53
:101D70003120FFF7DCFF0646641CB4F5A06F01D0EC
:101D8000002EF5D03120FFF7D2FF08B1012500E089
:101D90000025284670BD01460020A04A106820F0AA
:101DA000F80040EAC100106070479F490860704722
:101DB00002460020994B586820F47C1042EA010347
:101DC0001843964B5860704797490866704701461C
:101DD0000020924A506820F003000843506070478A
:101DE0008E48406800F00C007047014600208B4A86
:101DF000506820F0F0000843506070470146002012
:101E0000864A506820F4E0600843506070470146FD
:101E10000020824A506820F4605040EAC1005060BF
:101E2000704729B17D4A527A02437C4B5A7206E0D0
:101E30007A4A527AC343DBB21A40784B5A727047DF
:101E40007A490860704701460020744A506820F4BF
:101E500040400843506070470021754A11706F4A36
:101E600082F82010012802D0042808D103E00121C3
:101E70006F4A117004E005216D4A117000E000BF47
:101E800000BF70476B49086070476449096A0143A5
:101E9000624A11627047674944390860704730B53B
:101EA00000210022002400235C4D6D6805F00C0128
:101EB00021B1042905D0082923D105E05E4D056034
:101EC00022E05D4D05601FE0544D6D6805F4701211
:101ED000524D6D6805F48034022505EB92421CB921
:101EE000564D554305600BE04C4D6D6815F4003FB1
:101EF00003D0524D5543056002E04F4D55430560F8
:101F000002E04D4D056000BF00BF444D6D6805F017
:101F1000F00109094A4D6B5C0568DD4045603F4DA5
:101F20006D6805F4E061090A454D6B5C4568DD406C
:101F300085603A4D6D6805F46051C90A404D6B5C8F
:101F40004568DD40C560354D6D6805F44041890B3D
:101F50003C4D6B5CC568B5FBF3F5056130BD29B13F
:101F60002E4A526902432D4B5A6104E02B4A5269B2
:101F700082432A4B5A61704729B1284A9269024329
:101F8000264B9A6104E0254A92698243234B9A6169
:101F9000704729B1214AD2690243204BDA6104E03B
:101FA0001E4AD26982431D4BDA61704729B11B4A30
:101FB000D2680243194BDA6004E0184AD2688243BF
:101FC000164BDA60704729B1144A12690243134B69
:101FD0001A6104E0114A12698243104B1A6170477A
:101FE00014494039086070470F49C86470470B496D
:101FF000C87170470948406A40F0807007494862DC
:10200000704701460020054A92680A4201D001202B
:1020100000E00020704701498872704700100240BC
:102020000000FFF8FFFFF6FE00004242D8004242E7
:10203000201002408004424200127A0000093D0054
:10204000140000202400002029B1524A12880243C3
:10205000504B1A8006E04F4A1288C3439BB21A4085
:102060004C4B1A8070474B48001D008840F0100010
:102070004849091D088070474648001D00884FF6F2
:10208000EF7108404349091D08807047002141480D
:102090001C300188001F008841EA0040704700B5ED
:1020A0000246FFF7E0FF100C3A4918310880091D7D
:1020B0000A80FFF7E1FF00BD00B50246FFF7D3FF3E
:1020C000C2F30340334908310880091D0A80FFF735
:1020D000D3FF00BD00B50246FFF7C5FF100C2D4928
:1020E00020310880091D0A80FFF7C6FF00BD0020CF
:1020F0002849103109880907080B26491431098835
:102100000843704700BF2348001D008810F0200FCF
:10211000F9D070471F48001D00884FF6F77108403E
:102120001C49091D088000BF1A48001D008810F0D6
:10213000080FF9D0704701460020164A121D128878
:102140000A4201D0012000E0002070471149091D1A
:102150000988C24392B211400E4A121D1180704785
:10216000014600200B4A121D12880A40D0B2094ACB
:1021700012880A4202D008B1012000E00020704716
:102180000449091D0988C24392B21140014A121D37
:10219000118070470028004010B50446FE48844274
:1021A00008D10121C014FFF701FF0021E014FFF75F
:1021B000FDFEC4E0B4F1804F08D101210846FFF7CD
:1021C00002FF00210120FFF7FEFEB8E0F348844241
:1021D00008D101210220FFF7F6FE00210220FFF7BF
:1021E000F2FEACE0EE48844208D101210420FFF762
:1021F000EAFE00210420FFF7E6FEA0E0E948844261
:1022000008D101210820FFF7DEFE00210820FFF79A
:10221000DAFE94E0E448844208D101211020FFF75F
:10222000D2FE00211020FFF7CEFE88E0DF48844276
:1022300008D101212020FFF7C6FE00212020FFF752
:10224000C2FE7CE0DA48844208D101214014FFF745
:10225000ADFE00216014FFF7A9FE70E0D54884426E
:1022600009D10121C804FFF7A1FE00214FF400208D
:10227000FFF79CFE63E0D048844209D101210805A4
:10228000FFF794FE00214FF48010FFF78FFE56E019
:10229000CA48844209D101214805FFF787FE002181
:1022A0004FF40010FFF782FE49E0C548844208D190
:1022B00001214020FFF787FE00214020FFF783FE29
:1022C0003DE0C048844208D101218020FFF77BFE19
:1022D00000218020FFF777FE31E0BB48844208D11F
:1022E00001218015FFF76FFE0021A015FFF76BFE9F
:1022F00025E0B648844209D101210804FFF756FEC3
:1023000000214FF48030FFF751FE18E0B0488442BE
:1023100009D101214804FFF749FE00214FF40030A4
:10232000FFF744FE0BE0AB48844208D1012188044A
:10233000FFF73CFE00214FF48020FFF737FE10BD71
:1023400000220288944B98420ED0994B98420BD0B1
:10235000B0F1804F08D0914B984205D0904B9842F5
:1023600002D0904B984204D14FF68F731A404B889D
:102370001A438D4B984207D08C4B984204D04FF6AD
:10238000FF431A40CB881A4302808B8883850B88D1
:102390000385814B98420BD0854B984208D08B4BDC
:1023A000984205D08A4B984202D08A4B984201D17C
:1023B0000B7A038601238382704770B500240022C4
:1023C0000023058C4FF6FE7635400584028C838809
:1023D000048B4FF68F752C40B51E2C400D882C4376
:1023E000751E2A400D892A434D882A436A4DA8420A
:1023F0000BD06F4DA84208D0744DA84205D0744D43
:10240000A84202D0734DA84213D14FF6F7752A4067
:102410004D892A434FF6FB752A408D882A434FF693
:10242000FF652B404FF6FF552B408D892B43CD89FF
:102430002B4383800483CD888586028470BD70B56C
:10244000002400220023058C4FF6EF7635400584EA
:10245000028C8388048B48F6FF752C404FF6FF45AD
:102460002C400D882D0644EA15444FF6DF752A40AE
:102470000D892D0542EA15424D882D0542EA154287
:10248000454DA84202D04A4DA8421BD14FF67F7558
:102490002A404D892D0542EA15424FF6BF752A4064
:1024A0008D882D0542EA15424FF6FF352B404FF23D
:1024B000FF752B408D89AD0443EA1543CD89AD04EA
:1024C00043EA154383800483CD880587028470BD69
:1024D00070B5002400220023058C4FF6FF663540BE
:1024E0000584028C8388848B4FF68F752C404FF6C1
:1024F000FC752C400D882C434FF6FF552A400D8962
:102500002D0642EA15424D882D0642EA1542224D1B
:10251000A84202D0264DA8421BD14FF2FF752A4097
:102520004D892D0642EA15424FF6FF352A408D8827
:102530002D0642EA15424EF6FF752B404DF6FF750B
:102540002B408D892D0543EA1543CD892D0543EA9E
:10255000154383808483CD888587028470BD70B5E0
:10256000002200230024058C4EF6FF7635400584BA
:10257000038C8488828B48F6FF752A404FF6FF450E
:102580002A400D882D0642EA15424DF6FF752B4074
:102590000D892D0720E00000002C014000040040C0
:1025A00000080040000C00400010004000140040F3
:1025B00000340140004C01400050014000540140F3
:1025C00000180040001C0040002000400040014076
:1025D000004401400048014043EA15434D882D075F
:1025E00043EA1543F84DA84202D0F84DA84206D15F
:1025F0004BF6FF752C408D89AD0544EA1544848067
:102600008283CD88A0F84050038470BD828B4FF246
:10261000FF331A408283828B0B0642EA1342828385
:102620007047F0B50C461546002200210026078CA5
:102630004EF6FF7C07EA0C070784828B018C270784
:102640003E0C40F6FF473A402F0642EA17421F076A
:1026500042EA1742DC4FB8420ED0DC4FB8420BD0F2
:10266000B0F1804F08D0DA4FB84205D0D94FB84208
:1026700002D0D94FB84206D14DF6FF77394046F423
:102680008057394305E047F6FF57394044F48057F7
:10269000394382830184F0BD828B4FF6F3731A4075
:1026A0008283828B0A4382837047F0B50C461546BD
:1026B000002200210026078C4FF6FF6C07EA0C076A
:1026C0000784828B018C27063E0C4FF60C773A402C
:1026D0001F0545EA17473A43BB4FB8420ED0BB4FE0
:1026E000B8420BD0B0F1804F08D0B94FB84205D0F6
:1026F000B84FB84202D0B84FB84206D14FF6FF5794
:10270000394046F48077394305E04FF2FF573940AE
:1027100044F48077394382830184F0BD028B4FF209
:10272000FF331A400283028B0B0642EA13420283F4
:102730007047F0B50C461546002200210026078C94
:102740004FF6EF7C07EA0C070784028B018C270504
:102750003E0C40F6FF473A401F0742EA17422F0659
:1027600042EA1742984FB8420ED0984FB8420BD069
:10277000B0F1804F08D0964FB84205D0954FB8427F
:1027800002D0954FB84206D14FF6DF77394046F078
:102790001007394305E04FF65F77394044F01007E2
:1027A000394302830184F0BD028B4FF6F3731A4064
:1027B0000283028B0A4302837047F0B50C4615462C
:1027C00000220021068C4FF6FE773E400684028BE5
:1027D000018C4FF60C7632401E0545EA1646324310
:1027E000794EB0420ED0794EB0420BD0B0F1804F4E
:1027F00008D0774EB04205D0764EB04202D0764E29
:10280000B04206D14FF6FD76314044F00106314327
:1028100005E04FF6F576314044F00106314302837E
:102820000184F0BD70B505460C46674885420ED060
:10283000664885420BD0B5F1804F08D06448854288
:1028400005D06448854202D06348854200D100E04B
:1028500000BF208850B92389A28861882846FFF7E5
:10286000ACFFE1882846FFF79FFF25E02088042879
:102870000AD12389A28861882846FFF75AFFE18898
:102880002846FFF74BFF17E0208808280AD1238944
:10289000A28861882846FFF708FFE1882846FFF7ED
:1028A000FBFE09E02389A28861882846FFF7B9FE6C
:1028B000E1882846FFF7AAFE70BD2DE9F0410546E4
:1028C0000C4600260127608808B9022600E0002691
:1028D000A088012801D1022700E001272088A0B9A3
:1028E0002389A28861882846FFF767FFE188284688
:1028F000FFF75AFF23893A4631462846FFF719FF6A
:10290000E1882846FFF70AFF13E02389A28861883F
:102910002846FFF70EFFE1882846FFF7FFFE2389D0
:102920003A4631462846FFF748FFE1882846FFF738
:102930003BFFBDE8F0810A884B881A438B881A4315
:10294000CB881A430B891A434B891A438B891A4344
:10295000A0F8442070474FF6FF718180002101806C
:10296000C1804180017270470021018041808180D7
:10297000C180018141818181C18170470021018035
:102980004180012181800021C180018170470021A7
:10299000018041808180C1800181418181817047B6
:1029A00021B1028842F00102028004E002884FF661
:1029B000FE731A400280704781B1B0F8442042F49F
:1029C0000042A0F844200FE0002C014000340140F8
:1029D0000004004000080040000C0040B0F8442013
:1029E000C2F30E02A0F84420704710B51AB18389D3
:1029F0000B43838104E08389CC43A4B223408381C9
:102A000010BD8182704741EA0203A0F84830704748
:102A100010B51AB183890B43838104E08389CC43C9
:102A2000A4B22340838110BD01894FF6F872114092
:102A3000018170470A46002101894FF68F731940C2
:102A400011430181704730B504460D4629462046A2
:102A5000FFF7F0FF208940F00700208130BD2DE90D
:102A6000F04104460D4616461F46602D06D13B46F2
:102A7000012231462046FFF75CFE05E03B4601227D
:102A800031462046FFF799FE29462046FFF7D2FF40
:102A9000208940F007002081BDE8F08130B50C4668
:102AA00000210189C9B21D0642EA15452543294383
:102AB000018130BD2DE9F04105460E461746984686
:102AC000002443463A4631462846FFF7E7FF2C8963
:102AD0004FF6F870044044F007044FF68F7004403E
:102AE00044F070042C81BDE8F081F0B504460D4639
:102AF00016461F463B46324629462046FFF7CEFF84
:102B0000208940F480402081F0BD01858282704799
:102B10000A46002101884FF68F7319401143018046
:102B20007047F0B50C4615461E46002100220023D2
:102B30000189028B038C4FF6F877394021434FF619
:102B4000FC473A4040F201173A434FF6DD773B40ED
:102B5000370545EA17473B43018102830384F0BDF3
:102B60000A460021018B4FF68F73194011430183F0
:102B700070470A460021018B48F6FF73194013067F
:102B800041EA1341018370470A460021818B4FF6C9
:102B90008F7319401143818370470A460021818B4E
:102BA00048F6FF731940130641EA134181837047C9
:102BB00021B1028842F08002028004E002884FF6D0
:102BC0007F731A400280704721B1828842F004026C
:102BD000828004E082884FF6FB731A40828070473F
:102BE00021B1828842F00802828004E082884FF698
:102BF000F7731A408280704721B1828842F0010247
:102C0000828004E082884FF6FE731A40828070470B
:102C10000A460021018B4FF6F773194011430183D7
:102C200070470A460021018B4FF2FF7319401306CB
:102C300041EA1341018370470A460021818B4FF618
:102C4000F77319401143818370470A460021818B35
:102C50004FF2FF731940130641EA13418183704715
:102C60000A460021018B4FF6FB7319401143018383
:102C700070470A460021018B4FF6FF3319401306B7
:102C800041EA1341018370470A460021818B4FF6C8
:102C9000FB7319401143818370470A460021818BE1
:102CA0004FF6FF331940130641EA13418183704701
:102CB0000A460021018B4FF67F73194011430183AF
:102CC00070470A460021018BC1F30E01130641EA49
:102CD0001341018370470A460021818B4FF67F73B1
:102CE00019401143818370470A460021818BC1F34B
:102CF0000E01130641EA1341818370470A46002101
:102D0000018C4FF6FD7319401143018470470A4648
:102D10000021018C4FF6F77319401143018470476D
:102D20000A460021018C4FF6DF731940130541EA72
:102D30001341018470470A460021018C4FF67F73CE
:102D40001940130541EA1341018470470A460021E6
:102D5000018C4FF6FF531940130641EA13410184D9
:102D600070470A460021018C4FF2FF731940130689
:102D700041EA1341018470470A460021018C4DF657
:102D8000FF731940130741EA13410184704730B5BE
:102D9000002301248C40A3B2048CDD43ADB22C404F
:102DA0000484048C02FA01F5ADB22C43048430BDD6
:102DB00030B5002304248C40A3B2048CDD43ADB2B3
:102DC0002C400484048C02FA01F5ADB22C43048437
:102DD00030BD70B503460020002418461830012588
:102DE0008D40ACB21D8CE643B6B235401D8409B1AE
:102DF000082909D100EB6100056825F07005056020
:102E00000568154305600CE00D1FADB200EB6500D1
:102E1000056825F4E04505600568160645EA16458F
:102E2000056070BD21B1028842F00202028004E018
:102E300002884FF6FD731A400280704721B1028864
:102E400042F00402028004E002884FF6FB731A404D
:102E50000280704721B1828842F08002828004E0C3
:102E600082884FF67F731A408280704702884FF63F
:102E7000F7731A40028002880A43028070478288F2
:102E80004FF68F731A40828082880A43828070478F
:102E900002894FF6F8731A40028102890A430281BF
:102EA000704702894FF67F731A40028102890A43F4
:102EB00002817047818470478185704781867047A1
:102EC0000187704781877047A0F8401070470288DB
:102ED0004FF6FF431A40028002880A43028070477F
:102EE0000146888E70470146088F70470146888FDB
:102EF00070470146B1F8400070470146888C704722
:102F00000146088D704702460020138A0B4201D00B
:102F1000012000E000207047CA430282704730B5AC
:102F20000246002000230024158A05EA0103958942
:102F300005EA010413B10CB1012000E0002030BD0E
:102F4000CA4302827047000010B50446FC48844220
:102F500009D101218803FFF729F800214FF48040AF
:102F6000FFF724F832E0F748844209D101214804F0
:102F7000FFF729F800214FF40030FFF724F825E08F
:102F8000F148844209D101218804FFF71CF800218F
:102F90004FF48020FFF717F818E0EC48844209D17D
:102FA0000121C804FFF70FF800214FF40020FFF7BC
:102FB0000AF80BE0E648844208D101210805FFF732
:102FC00002F800214FF48010FEF7FDFF10BD2DE93F
:102FD000F04786B005460E460024A24600BFA14633
:102FE0000027B08900B100BF2F462C8A4CF6FF7035
:102FF0000440F08804432C82AC894EF6F310044060
:10300000B08831890843718908430443AC81AC8A94
:103010004FF6FF400440B0890443AC8201A8FEF79C
:103020003EFFC748874202D1DDF810A001E0DDF87D
:103030000CA0A88910F4004F08D00AEBCA0000EBDE
:103040000A1031684900B0FBF1F807E00AEBCA004A
:1030500000EB0A1031688900B0FBF1F86420B8FB7E
:10306000F0F004012009642101FB1089A88910F403
:10307000004F08D0322000EBC900B0FBF1F000F0A7
:103080000700044308E0322000EB09106421B0FB84
:10309000F1F000F00F0004432C8106B0BDE8F0878A
:1030A0004FF41651016000218180C18001810C2103
:1030B000418100218181704710B502460020108AAD
:1030C0004FF2FF0318400B884C8823438C8823431E
:1030D000CC8823431843108210BD00210180418019
:1030E0008180C180704721B1828942F4005282817F
:1030F00004E082894DF6FF731A4082817047F0B573
:1031000003460024002600250020A1F510676A3F31
:1031100000D100BF1846C1F3421401F01F06012779
:1031200007FA06F5012C01D10C3004E0022C01D184
:10313000103000E014301AB107682F43076002E036
:103140000768AF430760F0BD10B51AB1838A0B431F
:10315000838204E0838ACC43A4B22340838210BDDF
:10316000028A4FF6F0731A400282028A0A430282F0
:10317000704782894FF2FF731A40828182890A4325
:103180008281704721B1828942F00202828104E08B
:1031900082894FF6FD731A4082817047028A4FF68A
:1031A000DF731A400282028A0A430282704721B109
:1031B000028A42F48042028204E0028A4BF6FF73E4
:1031C0001A4002827047C1F30802828070470146AC
:1031D0008888C0F308007047818941F0010181812E
:1031E0007047028BD2B20283028B42EA0122028331
:1031F0007047028B02F47F420283028B0A430283F0
:10320000704721B1828A42F02002828204E0828AE1
:103210004FF6DF731A408282704721B1828A42F0F2
:103220001002828204E0828A4FF6EF731A40828293
:10323000704721B1828A42F00802828204E0828AC9
:103240004FF6F7731A408282704721B1828942F4A7
:103250000042828103E08289C2F30E0282817047BC
:1032600021B1828A42F40062828204E0828A4FF2B3
:10327000FF731A4082827047828A4FF6FB731A40AE
:103280008282828A0A438282704721B1828A42F016
:103290000202828204E0828A4FF6FD731A40828223
:1032A000704702460020B1F5007F00D100BF1388AF
:1032B0000B4201D0012000E00020704701F40072B1
:1032C000B2F5007F00D100BFCA430280704770B5DD
:1032D00002460024002300250020A1F510666A3E66
:1032E00000D100BFC1F3421501F01F03012606FA09
:1032F00003F3012D02D19689334006E0022D02D15D
:10330000168A334001E0968A33400C12012606FAF1
:1033100004F41688344013B10CB1012000E0002001
:1033200070BD10B500220023A1F510646A3C00D1E5
:1033300000BF0A1201249440A3B2DC43048010BDF4
:10334000003801400044004000480040004C00406C
:103350000050004008B50020009033F083F936F0AB
:1033600003FC0221124837F02EFB12490860142199
:10337000114837F028FB11490860002037F00AFE99
:103380000F4908606946012037F01CF80D490860B4
:103390006946012037F016F80B49086018230B4ADC
:1033A00000210B4837F0C0FF36F0C6FC002008BDF6
:1033B0004C000020480000200C3200205400002067
:1033C000580000205C0000206000002078350020BC
:1033D000B57D0008704720F081FD14E06148007958
:1033E000002810DD00206049096809B9012100E0CA
:1033F00000215D4A11604FF0000000E0401C5B4975
:103400008842FBDB00BFE9E700BFFEE700BFFEE745
:1034100000BFFEE770477047704710B536F0BEFB3F
:1034200036F0C1FC36F0C8FB10BD10B536F0B6FB67
:103430002020FDF725FC60B1C82033F0A4F94C48EA
:10344000006818B92AF0E4FE2EF0F6FE2020FDF701
:1034500013FC2020FDF710FC4020FDF70DFC802020
:10346000FDF70AFC4FF48070FDF706FC4FF4007086
:10347000FDF702FC36F0A0FB10BD10B536F08EFB58
:103480004FF40060FDF7FCFB40B13A48006808B912
:103490002AF0FAFE4FF40060FDF7EEFB4FF4806077
:1034A000FDF7EEFB60B13448006833F06CF9334847
:1034B000006808B92AF0CDFE4FF48060FDF7DCFB10
:1034C0004FF48050FDF7DCFB58B1052033F05BF979
:1034D0002B48006808B92AF0E6FE4FF48050FDF74B
:1034E000CBFB4FF48060FDF7C7FB4FF40060FDF7A6
:1034F000C3FB4FF48050FDF7BFFB4FF40050FDF7C6
:10350000BBFB4FF48040FDF7B7FB4FF40040FDF7E5
:10351000B3FB36F051FB10BD10B536F03FFB40F267
:1035200025511848FFF7D3FE01280DD140F225514F
:103530001448FFF7F6FE14480068804713480068F7
:10354000401C1249086009E040F227710D48FFF75E
:10355000BEFE012802D10E480068804736F02CFBE1
:1035600010BD0000EC3100208481214240420F0058
:10357000140121422C012142400000202801214257
:103580003001214200440040640000202800002057
:103590006800002001460020012902D002290ED136
:1035A00006E04FF4FA600223FE4A82F8C03706E0D4
:1035B0004FF4FA600223FB4A82F8303A00BF00BFA2
:1035C000704700B5F84890F8260006282BD2DFE8AF
:1035D00000F003080D121C234FF4FA70F24908851D
:1035E00021E04FF47A70F04908851CE041F2883000
:1035F000ED49088517E00520EB49C87042F20F70CD
:1036000008854FF4FA7048850DE00620E649C87039
:103610004FF4FA60088506E00720E349C87040F6D9
:10362000B830088500BF00BFDF4890F83A00052891
:1036300024D2DFE800F003080D121C004FF4FA70EA
:10364000D94988871AE04FF4FA60D749888715E08E
:1036500041F27070D449888710E00520D249C870C3
:1036600042F20F7088874FF4FA70C88706E0062090
:10367000CD49C8704FF4FA60888700BF00BFCA48C0
:1036800090F84500062822D2DFE800F02103090F58
:10369000151B4FF47A70C449A1F8460017E040F2B8
:1036A000DC50C149A1F8460011E040F6C410BE4903
:1036B000A1F846000BE041F28830BB49A1F8460072
:1036C00005E042F20F70B849A1F8460000BF00BF04
:1036D000B548007810F0020F04D00120FFF75AFF20
:1036E000B1498885B048007810F0040F05D0022059
:1036F000FFF750FFAC49A1F84000AB48C07938B99A
:103700004FF47A60A84948814FF4C870888104E07A
:103710000920A54948810120888100BD10B50E20EF
:10372000A149087000208871487188700420C87011
:103730000020C8710120087281F87100887341F27D
:10374000883008834FF4FA708882002008773F2081
:1037500048749648407988760120C876C87303205B
:103760000874022081F8260041F288300885322052
:1037700048850620C883012081F820001420488451
:10378000002081F82100022081F83A0041F2707097
:1037900088873220C88730208884002081F8430041
:1037A000012081F845004FF47A70A1F846003220DC
:1037B000A1F848007E48C8644FF07E50086500209C
:1037C00081F85400062081F86700022081F8680023
:1037D0004FF44860A1F858004FF49670A1F85A00D1
:1037E00041F2EC30A1F85C000020A1F85E00062058
:1037F00081F86000002081F86D0081F86F0096204C
:10380000A1F862004FF44860A1F8640080200886A7
:103810004FF4FA708886488641F28830C886642062
:103820000887FFF7CEFE10BD10B51E205E49087058
:10383000082088713F2048740120C876022081F852
:1038400026000620C88316204884022081F83A000A
:103850003E208884012081F845003220A1F84800EC
:103860005448C864002081F85400062081F867009D
:1038700081F86000012081F86D00002081F86E0061
:1038800081F86F000E2081F8610080200886FFF724
:1038900098FE10BD10B506204349087008208871B5
:1038A000022081F826000620C883162048840220C2
:1038B00081F83A003E208884012081F845004FF4C9
:1038C0007A70A1F846003220A1F848003848C86450
:1038D000002081F85400062081F86000012081F862
:1038E0006D0080200886FFF76CFE10BD10B5062025
:1038F0002D49087004208871022081F826000620D6
:10390000C88316204884022081F83A003E2088842B
:10391000042081F845004FF47A70A1F84600322067
:10392000A1F848002248C864002081F8540006200D
:1039300081F86000012081F86D0080200886FFF783
:1039400040FE10BD10B5062017490870042088718C
:103950000120C871022081F826000620C8830020BB
:1039600081F8200014204884022081F83A00302099
:103970008884042081F845004FF47A70A1F846004D
:103980003220A1F848000A48C864002081F8540099
:10399000062081F86000012081F86D0080200886F3
:1039A0000AE00000040F002078310020EC310020F4
:1039B00000401C46804FC347FFF703FE10BD10B503
:1039C0000E20FE490870042088710120C871022071
:1039D00081F826000620C883002081F820001620E8
:1039E0004884022081F83A003E208884012081F832
:1039F00045004FF47A70A1F84600F148C8640020F1
:103A000081F85400062081F86000012081F86D00E3
:103A100080200886FFF7D5FD10BD10B51E20E749B0
:103A2000087000208871C871022081F826000620E5
:103A3000C88316204884022081F83A003E208884FA
:103A4000012081F845004FF47A70A1F84600322039
:103A5000A1F84800DB48C864002081F85400012028
:103A600081F8560041F2EC30A1F85C004FF47A6026
:103A7000A1F85800062081F86000002081F86D0050
:103A800080200886FFF79DFD10BD10B50C20CB49A6
:103A9000087000208871C871022081F82600062075
:103AA000C88316204884032081F83A003E20888489
:103AB000012081F845004FF47A70A1F846003220C9
:103AC000A1F84800BF48C864002081F854000120D4
:103AD00081F8560041F2EC30A1F85C004FF47A60B6
:103AE000A1F85800062081F86000002081F86D00E0
:103AF00080200886FFF765FD10BD10B51E20AF4978
:103B00000870002088713F2048740520C87001208B
:103B1000C876032081F826004FF4FA704885062005
:103B2000C88316204884032081F83A004FF4FA70C5
:103B3000C8873E208884032081F845004FF4FA703E
:103B4000A1F848009F48C8649F480865002081F894
:103B5000540081F85600062081F8670081F8600063
:103B600041F27070A1F858004FF49670A1F85A0015
:103B700040F6B830A1F86400012081F86D00002003
:103B800081F86E0081F86F000E2081F861006920D5
:103B9000A1F8620080200886FFF713FD10BD10B564
:103BA0001E2086490870002088713F204874052037
:103BB000C8700120C876032081F826004FF4FA70FF
:103BC00048850620C88316204884032081F83A00DF
:103BD0004FF4FA70C8873E208884042081F845009D
:103BE0004FF4FA70A1F848007648C8647648086532
:103BF000002081F8540081F85600062081F8670003
:103C000081F8600041F27070A1F858004FF496708E
:103C1000A1F85A0040F6B830A1F86400012081F8FC
:103C20006D00002081F86E0081F86F000E2081F891
:103C300061006920A1F8620080200886FFF7C1FCBE
:103C400010BD10B51E205D49087008208871002045
:103C5000C871022081F826000620C88316204884F7
:103C6000022081F83A003E208884012081F8450036
:103C70004FF47A70A1F846003220A1F8480053486A
:103C8000C864002081F8540081F8560041F2EC30FD
:103C9000A1F85C004FF44860A1F85800062081F8B4
:103CA0006000002081F86D0080200886FFF789FC05
:103CB00010BD10B51E204149087000208871C871E0
:103CC000022081F826000620C8831620488402209E
:103CD00081F83A003E208884032081F845004FF4A3
:103CE000FA70A1F848003748C864374808650020D2
:103CF00081F85400012081F86D00022081F85600FF
:103D000041F2EC30A1F85C004FF47A60A1F8580061
:103D1000A1F86400062081F8600080200886FFF783
:103D200050FC10BD10B51E20244908700020887179
:103D3000C871022081F826000620C8831620488416
:103D4000022081F83A003E208884042081F8450052
:103D50004FF4FA70A1F848001A48C8641A48086578
:103D6000002081F85400012081F86D00022081F8C4
:103D7000560041F2EC30A1F85C004FF47A60A1F8F3
:103D80005800A1F86400062081F8600080200886B1
:103D9000FFF717FC10BD10B502200849087001207C
:103DA000887040F6C4100883002088710120C87113
:103DB000022081F826000620C88309E0783100201F
:103DC00000409C45005043470000A04000401C4676
:103DD00096204884022081F83A003E208884012001
:103DE00081F845004FF47A70A1F846003220A1F81E
:103DF0004800FE48C864002081F85400012081F882
:103E00006D00022081F8560041F2EC30A1F85C0010
:103E100041F27070A1F85800062081F860008020FF
:103E20000886FFF7CEFB10BD10B50620F0490870DC
:103E3000002088710120C871022081F82600062028
:103E4000C88396204884022081F83A003E20888466
:103E5000012081F845004FF47A70A1F84600322025
:103E6000A1F84800E148C864002081F8540001200E
:103E700081F86D00022081F8560041F2EC30A1F883
:103E80005C0041F27070A1F85800062081F86000D3
:103E900080200886FFF795FB10BD10B50620D44999
:103EA000087000208871C871032081F826004FF443
:103EB000FA7048850620C88316204884032081F8BC
:103EC0003A004FF4FA70C8873E208884012081F8B8
:103ED00045004FF47A70A1F846003220A1F848005E
:103EE000C248C864002081F85400012081F86D00A8
:103EF000022081F8560041F2EC30A1F85C0041F25A
:103F00007070A1F85800062081F8600080200886B3
:103F1000FFF757FB10BD10B50620B549087000200B
:103F200088710120C871032081F826004FF4FA70CF
:103F300048850620C88336204884032081F83A004B
:103F40004FF4FA70C8873E208884012081F845002C
:103F50004FF47A70A1F846003220A1F84800A34837
:103F6000C864002081F85400012081F86D0002200F
:103F700081F8560041F2EC30A1F85C0041F270701B
:103F8000A1F85800062081F8600080200886FFF71D
:103F900018FB10BD10B50E209549087008208871D7
:103FA000022081F8260040F2FE30C88316204884A3
:103FB000022081F83A003E2088844FF47A70A1F8FC
:103FC00046003220A1F848008848C864002081F8E3
:103FD0005400FFF7F6FA10BD10B52E208449087082
:103FE00008208871022081F8260040F2FE30C88344
:103FF00016204884022081F83A003E2088844FF43D
:104000007A70A1F846003220A1F848007748C864C9
:10401000002081F85400FFF7D4FA10BD10B50E202F
:104020007349087008208871022081F8260040F248
:10403000FE30C88316204884022081F83A003E20D2
:104040008884012081F845004FF47A70A1F8460079
:104050003220A1F848006548C864002081F8540067
:10406000FFF7AFFA10BD10B52E2061490870082087
:1040700088710020C871022081F826000620C883BC
:1040800016204884022081F83A003E2088840120CE
:1040900081F845004FF47A70A1F846003220A1F86B
:1040A00048005248C864002081F85400012081F87B
:1040B0006D00022081F8560041F2EC30A1F85C005E
:1040C00041F27070A1F85800062081F8600080204D
:1040D0000886FFF776FA10BD10B50E204449087027
:1040E000042088710020C871022081F82600062073
:1040F000C88316204884022081F83A003E20888434
:10410000012081F845004FF47A70A1F84600322072
:10411000A1F848003548C864002081F85400012007
:1041200081F86D00022081F8560041F2EC30A1F8D0
:104130005C0041F27070A1F85800062081F8600020
:1041400080200886FFF73DFA10BD10B50E202849E3
:104150000870002088710620C88316204884022039
:1041600081F8260081F83A003E208884012081F8F9
:1041700045004FF47A70A1F846003220A1F84800BB
:104180001A48C8644FF44860A1F85800002081F82C
:104190005400062081F86000002081F86D00FFF7D0
:1041A00010FA10BD10B50E20114908700120C8701A
:1041B000002088710620C88316204884002081F8DA
:1041C00026000A204885002081F83A003E20888495
:1041D0000A20C887002081F84500FFF7F2F94FF464
:1041E0007A700349A1F84600322003E000401C46E3
:1041F00078310020A1F84800FE48C864002081F80A
:1042000054004FF44860A1F85800062081F860007F
:10421000002081F86D0010BD10B50E20F649087021
:10422000002088710620C88316204884022081F867
:10423000260081F83A003E208884012081F845005C
:104240004FF47A70A1F846003220A1F84800E948FE
:10425000C8644FF44860A1F85800002081F8540069
:10426000062081F86000002081F86D00FFF7A9F9B1
:1042700010BD10B50E20E04908700020887106209E
:10428000C88316204884022081F8260081F83A006D
:104290003E208884022081F845003220A1F84800A1
:1042A000D448C864002081F854004FF44860A1F855
:1042B0005800062081F86000002081F86D00FFF7AB
:1042C00080F910BD10B50E20CB4908700020887110
:1042D0000620C88316204884022081F8260081F831
:1042E0003A003E208884012081F845004FF47A701E
:1042F000A1F846003220A1F84800C048C8644FF435
:104300004860A1F85800002081F85400062081F888
:104310006000002081F86D00FFF753F910BD10B563
:104320000A20B549087000208871C871022081F800
:1043300026000620C88316204884022081F83A000F
:104340003E208884012081F845004FF47A70A1F85E
:1043500046003220A1F84800A648C864002081F831
:104360005400012081F86D00022081F8560041F2CE
:10437000EC30A1F85C0041F27070A1F85800062002
:1043800081F8600080200886FFF71BF910BD10B58A
:104390001E209949087000208871C871022081F898
:1043A00026000620C88316204884022081F83A009F
:1043B0003E208884012081F845004FF47A70A1F8EE
:1043C00046003220A1F848008A48C864002081F8DD
:1043D000540081F86D0081F8560041F2EC30A1F8EC
:1043E0005C004FF44860A1F85800062081F8600096
:1043F00080200886FFF7E5F810BD10B51E207E4925
:10440000087000208871C871022081F826000620FB
:10441000C88316204884022081F83A003E20888410
:10442000012081F845004FF47A70A1F8460032204F
:10443000A1F848006F48C864002081F8540081F852
:104440006D0081F8560041F2EC30A1F85C004FF4A9
:104450004860A1F85800062081F860008020088696
:10446000FFF7AFF841F664106349088510BD10B539
:104470001E206149087000208871C871022081F8EF
:1044800026000620C88356204884022081F83A007E
:10449000DE208884012081F845004FF47A70A1F86D
:1044A00046003220A1F848005248C864002081F834
:1044B000540081F86D0081F8560041F2EC30A1F80B
:1044C0005C004FF44860A1F85800062081F86000B5
:1044D00080200886FFF775F810BD10B5FFF771F85A
:1044E00010BD10B506204449087000208871C871BD
:1044F000022081F826000620C88316204884022066
:1045000081F83A003E208884012081F845004FF46C
:104510007A70A1F846003220A1F848003548C864F6
:10452000002081F8540081F86D0081F8560041F2B6
:10453000EC30A1F85C004FF44860A1F85800062068
:1045400081F8600080200886FFF73BF810BD10B5A9
:1045500046202949087000208871C871022081F81E
:1045600026000620C88316204884022081F83A00DD
:104570003E208884012081F845004FF47A70A1F82C
:1045800046003220A1F848001A48C864002081F88B
:10459000540081F86D0081F8560041F2EC30A1F82A
:1045A0005C004FF44860A1F85800062081F86000D4
:1045B00080200886FFF705F810BD10B504200E49CD
:1045C00008700120887000208871C871C820888216
:1045D000022081F826000620C88316204884012086
:1045E00081F83A003E2088841420C887012081F891
:1045F000450005E000401C46783100200050C347CC
:104600004FF47A70A1F846003220A1F84800FE4825
:10461000C864002081F8540081F86D0081F85600CC
:1046200041F2EC30A1F85C004FF44860A1F858006A
:10463000062081F8600080200886FEF7C2FF10BDCA
:1046400010B50220F149087000208871C87102205D
:1046500081F826000620C88336204884022081F88D
:104660003A003E208884012081F845004FF47A709A
:10467000A1F846003220A1F84800E348C8640020B1
:1046800081F8540081F86D0081F8560041F2EC3059
:10469000A1F85C004FF44860A1F85800062081F8AA
:1046A000600080200886FEF78CFF10BD10B5062044
:1046B000D649087000208871C871022081F8260050
:1046C0000620C88336204884022081F83A005E2004
:1046D0008884012081F845004FF47A70A1F84600E3
:1046E0003220A1F84800C848C864002081F854006E
:1046F00081F86D0081F8560041F2EC30A1F85C00C1
:104700004FF44860A1F85800062081F8600080202E
:104710000886FEF756FF10BD10B5FEF752FF10BD1C
:1047200010B51020B949087000208871C8710220A6
:1047300081F826000620C88336204884022081F8AC
:104740003A005E208884012081F845004FF47A7099
:10475000A1F846003220A1F84800AB48C864002008
:1047600081F8540081F86D00012081F8560041F273
:10477000EC30A1F85C004FF47A60A1F858000620F4
:1047800081F8600080200886FEF71BFF10BD10B581
:1047900010209E49087000208871C871022081F89D
:1047A00026000620C88336204884022081F83A007B
:1047B0005E208884012081F845004FF47A70A1F8CA
:1047C00046003220A1F848008F48C864002081F8D4
:1047D000540081F86D00032081F8560041F2EC305E
:1047E000A1F85C0041F63800A1F85800062081F8D5
:1047F000600080200886FEF7E4FE10BD10B5102092
:104800008249087000208871C871022081F8260052
:104810000620C88336204884022081F83A005E20B2
:104820008884012081F845004FF47A70A1F8460091
:104830003220A1F848007448C864002081F8540070
:10484000012081F86D00032081F8560041F2EC3020
:10485000A1F85C004FF47A50A1F85800062081F8C6
:1048600060004FF4FA60A1F864007820A1F86200BB
:1048700080200886FEF7A5FE10BD10B51E206349F6
:10488000087000208871C871022081F82600062077
:10489000C88316204884022081F83A003E2088848C
:1048A000012081F845004FF47A70A1F846004010CD
:1048B000A1F848005648C86456480865002081F8A9
:1048C0005400012081F86D00032081F8560041F268
:1048D000EC30A1F85C0041F65830A1F858004FF4D4
:1048E000FA70A1F85A00062081F860004FF4FA60CF
:1048F000A1F864006E20A1F8620080200886FEF70F
:1049000060FE10BD10B50E2040490870002088716F
:10491000C871022081F826000620C883362048840A
:10492000022081F83A005E208884012081F8450049
:104930004FF47A70A1F846003220A1F848003248BE
:10494000C864002081F8540081F86D00032081F8CC
:10495000560041F2EC30A1F85C0041F63800A1F8B5
:104960005800062081F8600080200886FEF729FEA6
:1049700010BD10B50E202549087000208871062052
:10498000C88356204884022081F8260081F83A0026
:10499000DE208884012081F845004FF47A70A1F868
:1049A00046003220A1F848001748C864002081F86A
:1049B00054004FF44860A1F85800062081F86000C8
:1049C000002081F86D00FEF7FCFD10BD10B50E2033
:1049D0000E490870002088710620C883022081F8E3
:1049E000260056204884022081F83A00DE20888480
:1049F000012081F845004FF47A70A1F8460032207A
:104A0000A1F84800004807E000401C46783100202B
:104A10000050C3470000A040C864002081F8540043
:104A20004FF44860A1F85800062081F8600000208B
:104A300081F86D00FEF7C5FD10BD10B50220FE49DE
:104A4000087000208871022081F826000620C883A3
:104A500056204884022081F83A00DE208884FEF740
:104A6000B0FD10BD10B50220F34908700020887118
:104A7000022081F826000620C883562048840120A1
:104A800081F82100022081F83A00DE208884FEF7B8
:104A900098FD10BD10B50220E7490870002088710C
:104AA00081F8200081F826000620C883562048841B
:104AB000FEF787FD4FF4FA70DF4908850A20488524
:104AC00010BD10B50620DC49087000208871022056
:104AD00081F826000620C88356204884022081F8E9
:104AE0003A00DE208884FEF76CFD10BD10B504206E
:104AF000D149087000208871022081F82600062024
:104B0000C88356204884022081F83A00DE20888439
:104B1000012081F8430081F84400FEF752FD10BDEA
:104B200010B50620C449087000208871022081F861
:104B300026000620C88356204884022081F83A00C7
:104B4000DE208884012081F8430081F84400FEF7CC
:104B500038FD10BD10B50E20B749087008208871C7
:104B60000020C871022081F826000620C883162084
:104B70004884022081F83A003E208884012081F890
:104B800045004FF47A70A1F846003220A1F84800A1
:104B9000AA48C864002081F8540081F86D00032001
:104BA00081F8560041F2EC30A1F85C0041F6380083
:104BB000A1F85800062081F8600080200886FEF7E2
:104BC00000FD10BD10B50E209B49087000208871B3
:104BD000C871022081F826000620C8835620488428
:104BE000022081F83A00DE208884012081F8450007
:104BF0004FF47A70A1F846006420A1F848008F486D
:104C0000C864002081F8540081F86D00032081F809
:104C1000560041F2EC30A1F85C0041F63800A1F8F2
:104C20005800062081F8600080200886FEF7C9FC45
:104C300010BD10B516208049087000208871C87119
:104C4000022081F826000620C8831620488402200E
:104C500081F83A003E208884012081F845004FF415
:104C60007A70A1F846003220A1F848007348C86461
:104C7000002081F8540081F86D0081F8560041F25F
:104C8000EC30A1F85C004FF44860A1F85800062011
:104C900081F8600080200886FEF793FC10BD10B5F7
:104CA00006206549087000208871C871022081F8CB
:104CB00026000620C88316204884022081F83A0086
:104CC0003E208884012081F845004FF47A70A1F8D5
:104CD00046003220A1F848005848C864002081F8F6
:104CE000540081F86D0081F8560041F2EC30A1F8D3
:104CF0005C004FF44860A1F85800062081F860007D
:104D000080200886FEF75DFC10BD10B506204A49DC
:104D1000087000208871C871022081F826000620E2
:104D2000C88356204884022081F83A00DE20888417
:104D3000012081F845004FF47A70A1F84600322036
:104D4000A1F848003D48C864002081F8540081F86B
:104D50006D0081F8560041F2EC30A1F85C004FF490
:104D60004860A1F85800062081F86000802008867D
:104D7000FEF727FC10BD10B5FEF723FC10BD10B5E3
:104D80000E202D49087088710020C871022081F81A
:104D900026000620C88316204884022081F83A00A5
:104DA0003E208884012081F845004FF47A70A1F8F4
:104DB00046003220A1F848002048C864002081F84D
:104DC000540081F86D0081F8560041F2EC30A1F8F2
:104DD0005C004FF44860A1F85800062081F860009C
:104DE00080200886FEF7EDFB10BD10B52E2012497D
:104DF00008700E2088710020C871022081F82600FA
:104E00000620C88316204884022081F83A003E20FC
:104E10008884012081F845004FF47A70A1F846009B
:104E20003220A1F848000548C864002081F85400E9
:104E300081F86D0004E00000783100200050434705
:104E400081F8560041F2EC30A1F85C004FF4486064
:104E5000A1F85800062081F8600080200886FEF73F
:104E6000B0FB10BD10B50620F84908700820887105
:104E70000020C871022081F826000620C883162071
:104E80004884022081F83A003E208884012081F87D
:104E900045004FF47A70A1F846003220A1F848008E
:104EA000EB48C864002081F8540081F86D0081F857
:104EB000560041F2EC30A1F85C004FF44860A1F8D4
:104EC0005800062081F8600080200886FEF779FBF4
:104ED00010BD10B50E20DD49087000208871C87122
:104EE000022081F826000620C8831620488402206C
:104EF00081F83A003E208884012081F845004FF473
:104F00007A70A1F846003220A1F84800D048C86461
:104F1000002081F8540081F86D0081F8560041F2BC
:104F2000EC30A1F85C004FF44860A1F8580006206E
:104F300081F8600080200886FEF743FB10BD10B5A5
:104F40000E20C249087000208871C871022081F8C3
:104F500026000620C88356204884022081F83A00A3
:104F6000DE208884012081F845004FF47A70A1F892
:104F700046003220A1F84800B548C864002081F8F6
:104F8000540081F86D0081F8560041F2EC30A1F830
:104F90005C004FF44860A1F85800062081F86000DA
:104FA00080200886FEF70DFB10BD10B50E20A74926
:104FB000087000208871C871022081F82600062040
:104FC000C88336204884022081F83A003E20888435
:104FD000032081F8450040F6C410A1F846004FF4C4
:104FE000FA70A1F848009B4808659948C8640020F9
:104FF00081F8540081F86D0081F8560041F2EC30E0
:10500000A1F85C004FF44860A1F85800062081F830
:10501000600080200886FEF7D4FA10BD10B5082085
:105020008A49087000208871C871022081F8260022
:105030000620C88316204884022081F83A003E20CA
:105040008884032081F8450040F6C410A1F846008A
:105050004FF4FA70A1F848007E4808657C48C8649F
:10506000002081F8540081F86D0081F8560041F26B
:10507000EC30A1F85C004FF44860A1F8580006201D
:1050800081F8600080200886FEF79BFA10BD10B5FD
:1050900008206E49087000208871C871022081F8CC
:1050A00026000620C88316204884022081F83A0092
:1050B0003E208884042081F845004FF4FA70A1F85E
:1050C0004800644808656248C864002081F85400BC
:1050D00081F86D0081F8560041F2EC30A1F85C00D7
:1050E0004FF44860A1F85800062081F86000802045
:1050F0000886FEF766FA10BD10B5422053490870C5
:1051000000208871C8716420C8860887002081F853
:1051100026000620C88316204884022081F83A0021
:105120003E208884032081F8450040F6C410A1F891
:1051300046004FF4FA70A1F8480046480865444814
:10514000C864002081F8540081F86D0081F8560091
:1051500041F2EC30A1F85C004FF44860A1F858002F
:10516000062081F8600080200886FEF72AFA10BD2C
:1051700010B51E203549087000208871C8710220C2
:1051800081F826000620C88316204884022081F872
:105190003A003E208884012081F845004FF47A705F
:1051A000A1F846003220A1F848002948C864002030
:1051B00081F8540081F86D0081F8560041F2EC301E
:1051C000A1F85C004FF44860A1F858000120087273
:1051D000062081F8600080200886FEF7F2F910BDF5
:1051E00010B510201949087000208871C87102207C
:1051F00081F826000620C88316204884022081F802
:105200003A003E208884012081F845004FF47A70EE
:10521000A1F846003220A1F848000D48C8640020DB
:1052200081F8540081F86D0081F8560041F2EC30AD
:10523000A1F85C004FF44860A1F85800062081F8FE
:10524000600080200886FEF7BCF910BD7831002090
:10525000005043470000A04010B51020FE490870E0
:1052600000208871C871022081F826000620C883BA
:1052700016204884022081F83A003E2088840120CC
:1052800081F845004FF47A70A1F846003220A1F869
:105290004800F248C864002081F8540081F86D008D
:1052A00081F8560041F2EC30A1F85C004FF47A60CE
:1052B000A1F85800062081F8600080200886FEF7DB
:1052C00080F910BD10B50620E349087000208871F0
:1052D000C871022081F826000620C8835620488421
:1052E000022081F83A00DE208884012081F8450000
:1052F0004FF47A70A1F846003220A1F84800D74850
:10530000C864002081F8540081F86D0081F85600CF
:1053100041F2EC30A1F85C004FF44860A1F858006D
:10532000062081F8600080200886FEF74AF910BD4B
:1053300010B50620C8490870082088710620C88367
:10534000002081F820001420488430208884022026
:1053500081F8260081F83A00062081F860000120DB
:1053600081F86D00002081F85400FEF72AF910BD85
:1053700010B50620B8490870042088710620C8833B
:10538000002081F8200014204884302088840220E6
:1053900081F8260081F83A00062081F8600001209B
:1053A00081F86D00002081F85400FEF70AF910BD65
:1053B00010B50E20A849087008208871022081F8D5
:1053C00026000620C88314204884022081F83A0071
:1053D00030208884012081F845004FF47A70A1F8CC
:1053E0004600FA20A1F848009D48C864002081F8D2
:1053F00054004FF44860A1F85800062081F860007E
:10540000002081F86D000120C873FEF7DAF810BDA6
:1054100010B50E209049087004208871022081F890
:1054200026000620C88314204884022081F83A0010
:10543000302088844FF47A70A1F84600FA20A1F851
:1054400048008748C864002081F854004FF4486041
:10545000A1F85800062081F86000002081F86D0056
:10546000FEF7AFF810BD10B50E207B490870002084
:105470008871022081F826000620C883962048847F
:10548000022081F83A003E2088844FF47A70A1F817
:1054900046003220A1F848007248C864002081F814
:1054A00054004FF44860A1F85800062081F86000CD
:1054B000002081F86D00FEF784F810BD10B50220C1
:1054C0006549087000208871032081F8260040F2A9
:1054D000FE30C8830E2048844FF4FA704885FEF7EA
:1054E00070F810BD10B502205B490870002088716B
:1054F000032081F8260040F2FE30C883162048843D
:105500004FF4FA704885FEF75CF810BD10B5042022
:105510005149087000208871032081F83A003E202C
:1055200088844FF4FA70C887FEF74BF810BD10B5A9
:1055300002204949087000208871032081F8260064
:1055400040F2FE30C883362048844FF4FA70488514
:10555000FEF737F810BD10B506203F490870082047
:1055600088710120C8714871032081F82600062047
:10557000C883362048844FF4FA704885032081F8A8
:105580003A003E2088844FF4FA70C887FEF719F875
:1055900010BD10B506203049087008208871012020
:1055A000C8714871032081F826000620C8830E20A8
:1055B00048844FF4FA704885032081F83A001E2091
:1055C00088844FF4FA70C887FDF7FBFF10BD10B553
:1055D0000420214908700020887181F8710003209F
:1055E00081F8260040F2FE30C883362048844FF40C
:1055F000FA704885032081F83A005E2088844FF4D1
:10560000FA70C887012081F84300FDF7DAFF10BD6A
:1056100010B502201049087000208871C87104205C
:1056200081F826000620C8830E204884022081F8D5
:105630003A003E208884012081F845004FF47A70BA
:10564000A1F846003220A1F848000448C8640020B0
:1056500081F8540008E000007831002000504347F2
:1056600000409C4500401C4681F86D0081F85600C2
:1056700041F2EC30A1F85C004FF44860A1F858000A
:10568000062081F8600080200886FDF79AFF10BD93
:1056900010B50220FE49087000208871C8710520ED
:1056A00081F826000620C8830E204884022081F855
:1056B0003A003E208884012081F845004FF47A703A
:1056C000A1F846003220A1F84800F248C864002042
:1056D00081F8540081F86D0081F8560041F2EC30F9
:1056E000A1F85C004FF44860A1F85800062081F84A
:1056F000600080200886FDF764FF10BD10B504200F
:10570000E349087000208871C871042081F82600E0
:105710000620C8830E204884042081F83A003E20E9
:105720008884012081F845004FF47A70A1F8460082
:105730003220A1F84800D748C864002081F85400FE
:1057400081F86D0081F8560041F2EC30A1F85C0060
:105750004FF44860A1F85800062081F860008020CE
:105760000886FDF72EFF10BD10B50E20C849087041
:1057700000208871C871032081F826004FF4FA7068
:1057800048850620C88316204884032081F83A0003
:105790004FF4FA70C8873E208884012081F84500C4
:1057A0004FF47A70A1F84600FA20A1F84800B948F1
:1057B000C864002081F8540081F86D0081F856001B
:1057C00041F2EC30A1F85C004FF44860A1F85800B9
:1057D000062081F8600080200886FDF7F2FE10BDEB
:1057E00010B51E20AA49087000208871C8710320D6
:1057F00081F826004FF4FA7048850620C8831620E9
:105800004884032081F83A004FF4FA70C8873E209C
:105810008884012081F845004FF47A70A1F8460091
:105820004010A1F848009B48C8649B4808650020C8
:1058300081F85400012081F86D00002081F85600A5
:1058400041F2EC30A1F85C004FF47A60A1F8580006
:10585000C010A1F85A00062081F860008020088658
:10586000FDF7AFFE10BD10B50E208949087000206D
:105870008871C8710520C870032081F826004FF494
:10588000FA7048850620C88316204884032081F8D2
:105890003A003E208884032081F84500FDF791FE00
:1058A0004FF4FA707A49A1F848007B4808657948B6
:1058B000C864002081F8540081F86D0081F856001A
:1058C00041F2EC30A1F85C004FF44860A1F85800B8
:1058D000062081F860008020088610BD10B50E20DB
:1058E0006B49087000208871C8710520C8700320BA
:1058F00081F826000620C88316204884032081F8FA
:105900003A003E208884042081F845004FF4FA7064
:10591000A1F84800604808655E48C864002081F826
:10592000540081F86D0081F8560041F2EC30A1F886
:105930005C004FF44860A1F85800062081F8600030
:1059400080200886FDF73DFE10BD10B50E205049A1
:10595000087000208871C8710520C870032081F884
:1059600026000620C88316204884032081F83A00C8
:105970003E208884052081F8450042F20F70A1F88E
:10598000460041F28830A1F8480044480865414883
:10599000C864002081F8540081F86D0081F8560039
:1059A00041F2EC30A1F85C004FF44860A1F85800D7
:1059B000062081F8600080200886FDF702FE10BDF9
:1059C00010B50E203249087000208871C87103207C
:1059D00081F826000620C88316204884032081F819
:1059E0003A003E208884012081F845004FF47A7007
:1059F000A1F846003220A1F848002648C8640020DB
:105A000081F8540081F86D0081F8560041F2EC30C5
:105A1000A1F85C004FF44860A1F85800062081F816
:105A2000600080200886FDF7CCFD10BD10B5FDF7A5
:105A3000C8FD10BD10B51E201549087000208871E2
:105A4000022081F826000620C88316204884022000
:105A500081F83A003E2088844FF47A70A1F846001D
:105A60000C48C864002081F85400022081F86800C6
:105A70004FF47A60A1F858004FF49670A1F85A00DC
:105A800041F2EC30A1F85C004FF47A6008E00000CD
:105A900078310020005043470000A0400000FA4346
:105AA000A1F86400062081F86000012081F86D00F3
:105AB000002081F86E00FDF784FD10BD10B51E209A
:105AC000FE49087000208871022081F82600062017
:105AD000C88316204884022081F83A003E2088843A
